{
	"contracts/TaskContract.sol": {
		"TaskContract": {
			"abi": [
				{
					"inputs": [
						{
							"internalType": "string",
							"name": "_name",
							"type": "string"
						},
						{
							"internalType": "string",
							"name": "_description",
							"type": "string"
						}
					],
					"name": "createTask",
					"outputs": [],
					"stateMutability": "nonpayable",
					"type": "function"
				},
				{
					"inputs": [
						{
							"internalType": "uint256",
							"name": "_id",
							"type": "uint256"
						}
					],
					"name": "readTask",
					"outputs": [
						{
							"internalType": "uint256",
							"name": "",
							"type": "uint256"
						},
						{
							"internalType": "string",
							"name": "",
							"type": "string"
						},
						{
							"internalType": "string",
							"name": "",
							"type": "string"
						}
					],
					"stateMutability": "view",
					"type": "function"
				},
				{
					"inputs": [
						{
							"internalType": "uint256",
							"name": "_id",
							"type": "uint256"
						},
						{
							"internalType": "string",
							"name": "_name",
							"type": "string"
						},
						{
							"internalType": "string",
							"name": "_description",
							"type": "string"
						}
					],
					"name": "updateTask",
					"outputs": [],
					"stateMutability": "nonpayable",
					"type": "function"
				}
			],
			"devdoc": {
				"kind": "dev",
				"methods": {},
				"version": 1
			},
			"evm": {
				"assembly": "    /* \"contracts/TaskContract.sol\":65:1095  contract TaskContract{\r... */\n  mstore(0x40, 0x80)\n  callvalue\n  dup1\n  iszero\n  tag_1\n  jumpi\n  0x00\n  dup1\n  revert\ntag_1:\n  pop\n  dataSize(sub_0)\n  dup1\n  dataOffset(sub_0)\n  0x00\n  codecopy\n  0x00\n  return\nstop\n\nsub_0: assembly {\n        /* \"contracts/TaskContract.sol\":65:1095  contract TaskContract{\r... */\n      mstore(0x40, 0x80)\n      callvalue\n      dup1\n      iszero\n      tag_1\n      jumpi\n      0x00\n      dup1\n      revert\n    tag_1:\n      pop\n      jumpi(tag_2, lt(calldatasize, 0x04))\n      shr(0xe0, calldataload(0x00))\n      dup1\n      0x292a4585\n      eq\n      tag_3\n      jumpi\n      dup1\n      0xab755faf\n      eq\n      tag_4\n      jumpi\n      dup1\n      0xc72ef41f\n      eq\n      tag_5\n      jumpi\n    tag_2:\n      0x00\n      dup1\n      revert\n        /* \"contracts/TaskContract.sol\":238:398  function createTask(string memory _name, string memory _description) public{\r... */\n    tag_3:\n      tag_6\n      0x04\n      dup1\n      calldatasize\n      sub\n      dup2\n      add\n      swap1\n      tag_7\n      swap2\n      swap1\n      tag_8\n      jump\t// in\n    tag_7:\n      tag_9\n      jump\t// in\n    tag_6:\n      stop\n        /* \"contracts/TaskContract.sol\":653:863  function readTask(uint _id) public view returns (uint, string memory, string memory){\r... */\n    tag_4:\n      tag_10\n      0x04\n      dup1\n      calldatasize\n      sub\n      dup2\n      add\n      swap1\n      tag_11\n      swap2\n      swap1\n      tag_12\n      jump\t// in\n    tag_11:\n      tag_13\n      jump\t// in\n    tag_10:\n      mload(0x40)\n      tag_14\n      swap4\n      swap3\n      swap2\n      swap1\n      tag_15\n      jump\t// in\n    tag_14:\n      mload(0x40)\n      dup1\n      swap2\n      sub\n      swap1\n      return\n        /* \"contracts/TaskContract.sol\":871:1089  function updateTask(uint _id, string memory _name, string memory _description) public {\r... */\n    tag_5:\n      tag_16\n      0x04\n      dup1\n      calldatasize\n      sub\n      dup2\n      add\n      swap1\n      tag_17\n      swap2\n      swap1\n      tag_18\n      jump\t// in\n    tag_17:\n      tag_19\n      jump\t// in\n    tag_16:\n      stop\n        /* \"contracts/TaskContract.sol\":238:398  function createTask(string memory _name, string memory _description) public{\r... */\n    tag_9:\n        /* \"contracts/TaskContract.sol\":324:329  tasks */\n      0x01\n        /* \"contracts/TaskContract.sol\":335:369  Task (nextId, _name, _description) */\n      mload(0x40)\n      dup1\n      0x60\n      add\n      0x40\n      mstore\n      dup1\n        /* \"contracts/TaskContract.sol\":341:347  nextId */\n      sload(0x00)\n        /* \"contracts/TaskContract.sol\":335:369  Task (nextId, _name, _description) */\n      dup2\n      mstore\n      0x20\n      add\n        /* \"contracts/TaskContract.sol\":349:354  _name */\n      dup5\n        /* \"contracts/TaskContract.sol\":335:369  Task (nextId, _name, _description) */\n      dup2\n      mstore\n      0x20\n      add\n        /* \"contracts/TaskContract.sol\":356:368  _description */\n      dup4\n        /* \"contracts/TaskContract.sol\":335:369  Task (nextId, _name, _description) */\n      dup2\n      mstore\n      pop\n        /* \"contracts/TaskContract.sol\":324:370  tasks.push(Task (nextId, _name, _description)) */\n      swap1\n      dup1\n      0x01\n      dup2\n      sload\n      add\n      dup1\n      dup3\n      sstore\n      dup1\n      swap2\n      pop\n      pop\n      0x01\n      swap1\n      sub\n      swap1\n      0x00\n      mstore\n      keccak256(0x00, 0x20)\n      swap1\n      0x03\n      mul\n      add\n      0x00\n      swap1\n      swap2\n      swap1\n      swap2\n      swap1\n      swap2\n      pop\n      0x00\n      dup3\n      add\n      mload\n      dup2\n      0x00\n      add\n      sstore\n      0x20\n      dup3\n      add\n      mload\n      dup2\n      0x01\n      add\n      swap1\n      dup1\n      mload\n      swap1\n      0x20\n      add\n      swap1\n      tag_22\n      swap3\n      swap2\n      swap1\n      tag_23\n      jump\t// in\n    tag_22:\n      pop\n      0x40\n      dup3\n      add\n      mload\n      dup2\n      0x02\n      add\n      swap1\n      dup1\n      mload\n      swap1\n      0x20\n      add\n      swap1\n      tag_24\n      swap3\n      swap2\n      swap1\n      tag_23\n      jump\t// in\n    tag_24:\n      pop\n      pop\n      pop\n        /* \"contracts/TaskContract.sol\":381:387  nextId */\n      0x00\n      dup1\n        /* \"contracts/TaskContract.sol\":381:390  nextId ++ */\n      dup2\n      sload\n      dup1\n      swap3\n      swap2\n      swap1\n      tag_25\n      swap1\n      tag_26\n      jump\t// in\n    tag_25:\n      swap2\n      swap1\n      pop\n      sstore\n      pop\n        /* \"contracts/TaskContract.sol\":238:398  function createTask(string memory _name, string memory _description) public{\r... */\n      pop\n      pop\n      jump\t// out\n        /* \"contracts/TaskContract.sol\":653:863  function readTask(uint _id) public view returns (uint, string memory, string memory){\r... */\n    tag_13:\n        /* \"contracts/TaskContract.sol\":702:706  uint */\n      0x00\n        /* \"contracts/TaskContract.sol\":708:721  string memory */\n      0x60\n        /* \"contracts/TaskContract.sol\":723:736  string memory */\n      dup1\n        /* \"contracts/TaskContract.sol\":748:758  uint index */\n      0x00\n        /* \"contracts/TaskContract.sol\":761:775  findIndex(_id) */\n      tag_28\n        /* \"contracts/TaskContract.sol\":771:774  _id */\n      dup6\n        /* \"contracts/TaskContract.sol\":761:770  findIndex */\n      tag_29\n        /* \"contracts/TaskContract.sol\":761:775  findIndex(_id) */\n      jump\t// in\n    tag_28:\n        /* \"contracts/TaskContract.sol\":748:775  uint index = findIndex(_id) */\n      swap1\n      pop\n        /* \"contracts/TaskContract.sol\":794:799  tasks */\n      0x01\n        /* \"contracts/TaskContract.sol\":800:805  index */\n      dup2\n        /* \"contracts/TaskContract.sol\":794:806  tasks[index] */\n      dup2\n      sload\n      dup2\n      lt\n      tag_30\n      jumpi\n      tag_31\n      tag_32\n      jump\t// in\n    tag_31:\n    tag_30:\n      swap1\n      0x00\n      mstore\n      keccak256(0x00, 0x20)\n      swap1\n      0x03\n      mul\n      add\n        /* \"contracts/TaskContract.sol\":794:809  tasks[index].id */\n      0x00\n      add\n      sload\n        /* \"contracts/TaskContract.sol\":811:816  tasks */\n      0x01\n        /* \"contracts/TaskContract.sol\":817:822  index */\n      dup3\n        /* \"contracts/TaskContract.sol\":811:823  tasks[index] */\n      dup2\n      sload\n      dup2\n      lt\n      tag_34\n      jumpi\n      tag_35\n      tag_32\n      jump\t// in\n    tag_35:\n    tag_34:\n      swap1\n      0x00\n      mstore\n      keccak256(0x00, 0x20)\n      swap1\n      0x03\n      mul\n      add\n        /* \"contracts/TaskContract.sol\":811:828  tasks[index].name */\n      0x01\n      add\n        /* \"contracts/TaskContract.sol\":830:835  tasks */\n      0x01\n        /* \"contracts/TaskContract.sol\":836:841  index */\n      dup4\n        /* \"contracts/TaskContract.sol\":830:842  tasks[index] */\n      dup2\n      sload\n      dup2\n      lt\n      tag_37\n      jumpi\n      tag_38\n      tag_32\n      jump\t// in\n    tag_38:\n    tag_37:\n      swap1\n      0x00\n      mstore\n      keccak256(0x00, 0x20)\n      swap1\n      0x03\n      mul\n      add\n        /* \"contracts/TaskContract.sol\":830:854  tasks[index].description */\n      0x02\n      add\n        /* \"contracts/TaskContract.sol\":786:855  return (tasks[index].id, tasks[index].name, tasks[index].description) */\n      dup2\n      dup1\n      sload\n      tag_40\n      swap1\n      tag_41\n      jump\t// in\n    tag_40:\n      dup1\n      0x1f\n      add\n      0x20\n      dup1\n      swap2\n      div\n      mul\n      0x20\n      add\n      mload(0x40)\n      swap1\n      dup2\n      add\n      0x40\n      mstore\n      dup1\n      swap3\n      swap2\n      swap1\n      dup2\n      dup2\n      mstore\n      0x20\n      add\n      dup3\n      dup1\n      sload\n      tag_42\n      swap1\n      tag_41\n      jump\t// in\n    tag_42:\n      dup1\n      iszero\n      tag_43\n      jumpi\n      dup1\n      0x1f\n      lt\n      tag_44\n      jumpi\n      0x0100\n      dup1\n      dup4\n      sload\n      div\n      mul\n      dup4\n      mstore\n      swap2\n      0x20\n      add\n      swap2\n      jump(tag_43)\n    tag_44:\n      dup3\n      add\n      swap2\n      swap1\n      0x00\n      mstore\n      keccak256(0x00, 0x20)\n      swap1\n    tag_45:\n      dup2\n      sload\n      dup2\n      mstore\n      swap1\n      0x01\n      add\n      swap1\n      0x20\n      add\n      dup1\n      dup4\n      gt\n      tag_45\n      jumpi\n      dup3\n      swap1\n      sub\n      0x1f\n      and\n      dup3\n      add\n      swap2\n    tag_43:\n      pop\n      pop\n      pop\n      pop\n      pop\n      swap2\n      pop\n      dup1\n      dup1\n      sload\n      tag_46\n      swap1\n      tag_41\n      jump\t// in\n    tag_46:\n      dup1\n      0x1f\n      add\n      0x20\n      dup1\n      swap2\n      div\n      mul\n      0x20\n      add\n      mload(0x40)\n      swap1\n      dup2\n      add\n      0x40\n      mstore\n      dup1\n      swap3\n      swap2\n      swap1\n      dup2\n      dup2\n      mstore\n      0x20\n      add\n      dup3\n      dup1\n      sload\n      tag_47\n      swap1\n      tag_41\n      jump\t// in\n    tag_47:\n      dup1\n      iszero\n      tag_48\n      jumpi\n      dup1\n      0x1f\n      lt\n      tag_49\n      jumpi\n      0x0100\n      dup1\n      dup4\n      sload\n      div\n      mul\n      dup4\n      mstore\n      swap2\n      0x20\n      add\n      swap2\n      jump(tag_48)\n    tag_49:\n      dup3\n      add\n      swap2\n      swap1\n      0x00\n      mstore\n      keccak256(0x00, 0x20)\n      swap1\n    tag_50:\n      dup2\n      sload\n      dup2\n      mstore\n      swap1\n      0x01\n      add\n      swap1\n      0x20\n      add\n      dup1\n      dup4\n      gt\n      tag_50\n      jumpi\n      dup3\n      swap1\n      sub\n      0x1f\n      and\n      dup3\n      add\n      swap2\n    tag_48:\n      pop\n      pop\n      pop\n      pop\n      pop\n      swap1\n      pop\n      swap4\n      pop\n      swap4\n      pop\n      swap4\n      pop\n      pop\n        /* \"contracts/TaskContract.sol\":653:863  function readTask(uint _id) public view returns (uint, string memory, string memory){\r... */\n      swap2\n      swap4\n      swap1\n      swap3\n      pop\n      jump\t// out\n        /* \"contracts/TaskContract.sol\":871:1089  function updateTask(uint _id, string memory _name, string memory _description) public {\r... */\n    tag_19:\n        /* \"contracts/TaskContract.sol\":968:978  uint index */\n      0x00\n        /* \"contracts/TaskContract.sol\":981:995  findIndex(_id) */\n      tag_52\n        /* \"contracts/TaskContract.sol\":991:994  _id */\n      dup5\n        /* \"contracts/TaskContract.sol\":981:990  findIndex */\n      tag_29\n        /* \"contracts/TaskContract.sol\":981:995  findIndex(_id) */\n      jump\t// in\n    tag_52:\n        /* \"contracts/TaskContract.sol\":968:995  uint index = findIndex(_id) */\n      swap1\n      pop\n        /* \"contracts/TaskContract.sol\":1026:1031  _name */\n      dup3\n        /* \"contracts/TaskContract.sol\":1006:1011  tasks */\n      0x01\n        /* \"contracts/TaskContract.sol\":1012:1017  index */\n      dup3\n        /* \"contracts/TaskContract.sol\":1006:1018  tasks[index] */\n      dup2\n      sload\n      dup2\n      lt\n      tag_53\n      jumpi\n      tag_54\n      tag_32\n      jump\t// in\n    tag_54:\n    tag_53:\n      swap1\n      0x00\n      mstore\n      keccak256(0x00, 0x20)\n      swap1\n      0x03\n      mul\n      add\n        /* \"contracts/TaskContract.sol\":1006:1023  tasks[index].name */\n      0x01\n      add\n        /* \"contracts/TaskContract.sol\":1006:1031  tasks[index].name = _name */\n      swap1\n      dup1\n      mload\n      swap1\n      0x20\n      add\n      swap1\n      tag_56\n      swap3\n      swap2\n      swap1\n      tag_23\n      jump\t// in\n    tag_56:\n      pop\n        /* \"contracts/TaskContract.sol\":1069:1081  _description */\n      dup2\n        /* \"contracts/TaskContract.sol\":1042:1047  tasks */\n      0x01\n        /* \"contracts/TaskContract.sol\":1048:1053  index */\n      dup3\n        /* \"contracts/TaskContract.sol\":1042:1054  tasks[index] */\n      dup2\n      sload\n      dup2\n      lt\n      tag_57\n      jumpi\n      tag_58\n      tag_32\n      jump\t// in\n    tag_58:\n    tag_57:\n      swap1\n      0x00\n      mstore\n      keccak256(0x00, 0x20)\n      swap1\n      0x03\n      mul\n      add\n        /* \"contracts/TaskContract.sol\":1042:1066  tasks[index].description */\n      0x02\n      add\n        /* \"contracts/TaskContract.sol\":1042:1081  tasks[index].description = _description */\n      swap1\n      dup1\n      mload\n      swap1\n      0x20\n      add\n      swap1\n      tag_60\n      swap3\n      swap2\n      swap1\n      tag_23\n      jump\t// in\n    tag_60:\n      pop\n        /* \"contracts/TaskContract.sol\":957:1089  {\r... */\n      pop\n        /* \"contracts/TaskContract.sol\":871:1089  function updateTask(uint _id, string memory _name, string memory _description) public {\r... */\n      pop\n      pop\n      pop\n      jump\t// out\n        /* \"contracts/TaskContract.sol\":406:645  function findIndex (uint _id) internal view returns (uint) {\r... */\n    tag_29:\n        /* \"contracts/TaskContract.sol\":459:463  uint */\n      0x00\n        /* \"contracts/TaskContract.sol\":480:486  uint i */\n      dup1\n        /* \"contracts/TaskContract.sol\":489:490  0 */\n      0x00\n        /* \"contracts/TaskContract.sol\":480:490  uint i = 0 */\n      swap1\n      pop\n        /* \"contracts/TaskContract.sol\":476:603  for(uint i = 0; i<tasks.length; i++){\r... */\n    tag_62:\n        /* \"contracts/TaskContract.sol\":494:499  tasks */\n      0x01\n        /* \"contracts/TaskContract.sol\":494:506  tasks.length */\n      dup1\n      sload\n      swap1\n      pop\n        /* \"contracts/TaskContract.sol\":492:493  i */\n      dup2\n        /* \"contracts/TaskContract.sol\":492:506  i<tasks.length */\n      lt\n        /* \"contracts/TaskContract.sol\":476:603  for(uint i = 0; i<tasks.length; i++){\r... */\n      iszero\n      tag_63\n      jumpi\n        /* \"contracts/TaskContract.sol\":545:548  _id */\n      dup3\n        /* \"contracts/TaskContract.sol\":530:535  tasks */\n      0x01\n        /* \"contracts/TaskContract.sol\":536:537  i */\n      dup3\n        /* \"contracts/TaskContract.sol\":530:538  tasks[i] */\n      dup2\n      sload\n      dup2\n      lt\n      tag_65\n      jumpi\n      tag_66\n      tag_32\n      jump\t// in\n    tag_66:\n    tag_65:\n      swap1\n      0x00\n      mstore\n      keccak256(0x00, 0x20)\n      swap1\n      0x03\n      mul\n      add\n        /* \"contracts/TaskContract.sol\":530:541  tasks[i].id */\n      0x00\n      add\n      sload\n        /* \"contracts/TaskContract.sol\":530:548  tasks[i].id == _id */\n      eq\n        /* \"contracts/TaskContract.sol\":527:592  if(tasks[i].id == _id){\r... */\n      iszero\n      tag_68\n      jumpi\n        /* \"contracts/TaskContract.sol\":575:576  i */\n      dup1\n        /* \"contracts/TaskContract.sol\":568:576  return i */\n      swap2\n      pop\n      pop\n      jump(tag_61)\n        /* \"contracts/TaskContract.sol\":527:592  if(tasks[i].id == _id){\r... */\n    tag_68:\n        /* \"contracts/TaskContract.sol\":508:511  i++ */\n      dup1\n      dup1\n      tag_69\n      swap1\n      tag_26\n      jump\t// in\n    tag_69:\n      swap2\n      pop\n      pop\n        /* \"contracts/TaskContract.sol\":476:603  for(uint i = 0; i<tasks.length; i++){\r... */\n      jump(tag_62)\n    tag_63:\n      pop\n        /* \"contracts/TaskContract.sol\":613:637  revert('Task not found') */\n      mload(0x40)\n      0x08c379a000000000000000000000000000000000000000000000000000000000\n      dup2\n      mstore\n      0x04\n      add\n      tag_70\n      swap1\n      tag_71\n      jump\t// in\n    tag_70:\n      mload(0x40)\n      dup1\n      swap2\n      sub\n      swap1\n      revert\n        /* \"contracts/TaskContract.sol\":406:645  function findIndex (uint _id) internal view returns (uint) {\r... */\n    tag_61:\n      swap2\n      swap1\n      pop\n      jump\t// out\n    tag_23:\n      dup3\n      dup1\n      sload\n      tag_72\n      swap1\n      tag_41\n      jump\t// in\n    tag_72:\n      swap1\n      0x00\n      mstore\n      keccak256(0x00, 0x20)\n      swap1\n      0x1f\n      add\n      0x20\n      swap1\n      div\n      dup2\n      add\n      swap3\n      dup3\n      tag_74\n      jumpi\n      0x00\n      dup6\n      sstore\n      jump(tag_73)\n    tag_74:\n      dup3\n      0x1f\n      lt\n      tag_75\n      jumpi\n      dup1\n      mload\n      not(0xff)\n      and\n      dup4\n      dup1\n      add\n      or\n      dup6\n      sstore\n      jump(tag_73)\n    tag_75:\n      dup3\n      dup1\n      add\n      0x01\n      add\n      dup6\n      sstore\n      dup3\n      iszero\n      tag_73\n      jumpi\n      swap2\n      dup3\n      add\n    tag_76:\n      dup3\n      dup2\n      gt\n      iszero\n      tag_77\n      jumpi\n      dup3\n      mload\n      dup3\n      sstore\n      swap2\n      0x20\n      add\n      swap2\n      swap1\n      0x01\n      add\n      swap1\n      jump(tag_76)\n    tag_77:\n    tag_73:\n      pop\n      swap1\n      pop\n      tag_78\n      swap2\n      swap1\n      tag_79\n      jump\t// in\n    tag_78:\n      pop\n      swap1\n      jump\t// out\n    tag_79:\n    tag_80:\n      dup1\n      dup3\n      gt\n      iszero\n      tag_81\n      jumpi\n      0x00\n      dup2\n      0x00\n      swap1\n      sstore\n      pop\n      0x01\n      add\n      jump(tag_80)\n    tag_81:\n      pop\n      swap1\n      jump\t// out\n        /* \"#utility.yul\":7:419   */\n    tag_83:\n        /* \"#utility.yul\":85:90   */\n      0x00\n        /* \"#utility.yul\":110:176   */\n      tag_85\n        /* \"#utility.yul\":126:175   */\n      tag_86\n        /* \"#utility.yul\":168:174   */\n      dup5\n        /* \"#utility.yul\":126:175   */\n      tag_87\n      jump\t// in\n    tag_86:\n        /* \"#utility.yul\":110:176   */\n      tag_88\n      jump\t// in\n    tag_85:\n        /* \"#utility.yul\":101:176   */\n      swap1\n      pop\n        /* \"#utility.yul\":199:205   */\n      dup3\n        /* \"#utility.yul\":192:197   */\n      dup2\n        /* \"#utility.yul\":185:206   */\n      mstore\n        /* \"#utility.yul\":237:241   */\n      0x20\n        /* \"#utility.yul\":230:235   */\n      dup2\n        /* \"#utility.yul\":226:242   */\n      add\n        /* \"#utility.yul\":275:278   */\n      dup5\n        /* \"#utility.yul\":266:272   */\n      dup5\n        /* \"#utility.yul\":261:264   */\n      dup5\n        /* \"#utility.yul\":257:273   */\n      add\n        /* \"#utility.yul\":254:279   */\n      gt\n        /* \"#utility.yul\":251:253   */\n      iszero\n      tag_89\n      jumpi\n        /* \"#utility.yul\":282:361   */\n      tag_90\n      tag_91\n      jump\t// in\n    tag_90:\n        /* \"#utility.yul\":251:253   */\n    tag_89:\n        /* \"#utility.yul\":372:413   */\n      tag_92\n        /* \"#utility.yul\":406:412   */\n      dup5\n        /* \"#utility.yul\":401:404   */\n      dup3\n        /* \"#utility.yul\":396:399   */\n      dup6\n        /* \"#utility.yul\":372:413   */\n      tag_93\n      jump\t// in\n    tag_92:\n        /* \"#utility.yul\":91:419   */\n      pop\n      swap4\n      swap3\n      pop\n      pop\n      pop\n      jump\t// out\n        /* \"#utility.yul\":439:779   */\n    tag_94:\n        /* \"#utility.yul\":495:500   */\n      0x00\n        /* \"#utility.yul\":544:547   */\n      dup3\n        /* \"#utility.yul\":537:541   */\n      0x1f\n        /* \"#utility.yul\":529:535   */\n      dup4\n        /* \"#utility.yul\":525:542   */\n      add\n        /* \"#utility.yul\":521:548   */\n      slt\n        /* \"#utility.yul\":511:513   */\n      tag_96\n      jumpi\n        /* \"#utility.yul\":552:631   */\n      tag_97\n      tag_98\n      jump\t// in\n    tag_97:\n        /* \"#utility.yul\":511:513   */\n    tag_96:\n        /* \"#utility.yul\":669:675   */\n      dup2\n        /* \"#utility.yul\":656:676   */\n      calldataload\n        /* \"#utility.yul\":694:773   */\n      tag_99\n        /* \"#utility.yul\":769:772   */\n      dup5\n        /* \"#utility.yul\":761:767   */\n      dup3\n        /* \"#utility.yul\":754:758   */\n      0x20\n        /* \"#utility.yul\":746:752   */\n      dup7\n        /* \"#utility.yul\":742:759   */\n      add\n        /* \"#utility.yul\":694:773   */\n      tag_83\n      jump\t// in\n    tag_99:\n        /* \"#utility.yul\":685:773   */\n      swap2\n      pop\n        /* \"#utility.yul\":501:779   */\n      pop\n      swap3\n      swap2\n      pop\n      pop\n      jump\t// out\n        /* \"#utility.yul\":785:924   */\n    tag_100:\n        /* \"#utility.yul\":831:836   */\n      0x00\n        /* \"#utility.yul\":869:875   */\n      dup2\n        /* \"#utility.yul\":856:876   */\n      calldataload\n        /* \"#utility.yul\":847:876   */\n      swap1\n      pop\n        /* \"#utility.yul\":885:918   */\n      tag_102\n        /* \"#utility.yul\":912:917   */\n      dup2\n        /* \"#utility.yul\":885:918   */\n      tag_103\n      jump\t// in\n    tag_102:\n        /* \"#utility.yul\":837:924   */\n      swap3\n      swap2\n      pop\n      pop\n      jump\t// out\n        /* \"#utility.yul\":930:1764   */\n    tag_8:\n        /* \"#utility.yul\":1018:1024   */\n      0x00\n        /* \"#utility.yul\":1026:1032   */\n      dup1\n        /* \"#utility.yul\":1075:1077   */\n      0x40\n        /* \"#utility.yul\":1063:1072   */\n      dup4\n        /* \"#utility.yul\":1054:1061   */\n      dup6\n        /* \"#utility.yul\":1050:1073   */\n      sub\n        /* \"#utility.yul\":1046:1078   */\n      slt\n        /* \"#utility.yul\":1043:1045   */\n      iszero\n      tag_105\n      jumpi\n        /* \"#utility.yul\":1081:1160   */\n      tag_106\n      tag_107\n      jump\t// in\n    tag_106:\n        /* \"#utility.yul\":1043:1045   */\n    tag_105:\n        /* \"#utility.yul\":1229:1230   */\n      0x00\n        /* \"#utility.yul\":1218:1227   */\n      dup4\n        /* \"#utility.yul\":1214:1231   */\n      add\n        /* \"#utility.yul\":1201:1232   */\n      calldataload\n        /* \"#utility.yul\":1259:1277   */\n      0xffffffffffffffff\n        /* \"#utility.yul\":1251:1257   */\n      dup2\n        /* \"#utility.yul\":1248:1278   */\n      gt\n        /* \"#utility.yul\":1245:1247   */\n      iszero\n      tag_108\n      jumpi\n        /* \"#utility.yul\":1281:1360   */\n      tag_109\n      tag_110\n      jump\t// in\n    tag_109:\n        /* \"#utility.yul\":1245:1247   */\n    tag_108:\n        /* \"#utility.yul\":1386:1449   */\n      tag_111\n        /* \"#utility.yul\":1441:1448   */\n      dup6\n        /* \"#utility.yul\":1432:1438   */\n      dup3\n        /* \"#utility.yul\":1421:1430   */\n      dup7\n        /* \"#utility.yul\":1417:1439   */\n      add\n        /* \"#utility.yul\":1386:1449   */\n      tag_94\n      jump\t// in\n    tag_111:\n        /* \"#utility.yul\":1376:1449   */\n      swap3\n      pop\n        /* \"#utility.yul\":1172:1459   */\n      pop\n        /* \"#utility.yul\":1526:1528   */\n      0x20\n        /* \"#utility.yul\":1515:1524   */\n      dup4\n        /* \"#utility.yul\":1511:1529   */\n      add\n        /* \"#utility.yul\":1498:1530   */\n      calldataload\n        /* \"#utility.yul\":1557:1575   */\n      0xffffffffffffffff\n        /* \"#utility.yul\":1549:1555   */\n      dup2\n        /* \"#utility.yul\":1546:1576   */\n      gt\n        /* \"#utility.yul\":1543:1545   */\n      iszero\n      tag_112\n      jumpi\n        /* \"#utility.yul\":1579:1658   */\n      tag_113\n      tag_110\n      jump\t// in\n    tag_113:\n        /* \"#utility.yul\":1543:1545   */\n    tag_112:\n        /* \"#utility.yul\":1684:1747   */\n      tag_114\n        /* \"#utility.yul\":1739:1746   */\n      dup6\n        /* \"#utility.yul\":1730:1736   */\n      dup3\n        /* \"#utility.yul\":1719:1728   */\n      dup7\n        /* \"#utility.yul\":1715:1737   */\n      add\n        /* \"#utility.yul\":1684:1747   */\n      tag_94\n      jump\t// in\n    tag_114:\n        /* \"#utility.yul\":1674:1747   */\n      swap2\n      pop\n        /* \"#utility.yul\":1469:1757   */\n      pop\n        /* \"#utility.yul\":1033:1764   */\n      swap3\n      pop\n      swap3\n      swap1\n      pop\n      jump\t// out\n        /* \"#utility.yul\":1770:2099   */\n    tag_12:\n        /* \"#utility.yul\":1829:1835   */\n      0x00\n        /* \"#utility.yul\":1878:1880   */\n      0x20\n        /* \"#utility.yul\":1866:1875   */\n      dup3\n        /* \"#utility.yul\":1857:1864   */\n      dup5\n        /* \"#utility.yul\":1853:1876   */\n      sub\n        /* \"#utility.yul\":1849:1881   */\n      slt\n        /* \"#utility.yul\":1846:1848   */\n      iszero\n      tag_116\n      jumpi\n        /* \"#utility.yul\":1884:1963   */\n      tag_117\n      tag_107\n      jump\t// in\n    tag_117:\n        /* \"#utility.yul\":1846:1848   */\n    tag_116:\n        /* \"#utility.yul\":2004:2005   */\n      0x00\n        /* \"#utility.yul\":2029:2082   */\n      tag_118\n        /* \"#utility.yul\":2074:2081   */\n      dup5\n        /* \"#utility.yul\":2065:2071   */\n      dup3\n        /* \"#utility.yul\":2054:2063   */\n      dup6\n        /* \"#utility.yul\":2050:2072   */\n      add\n        /* \"#utility.yul\":2029:2082   */\n      tag_100\n      jump\t// in\n    tag_118:\n        /* \"#utility.yul\":2019:2082   */\n      swap2\n      pop\n        /* \"#utility.yul\":1975:2092   */\n      pop\n        /* \"#utility.yul\":1836:2099   */\n      swap3\n      swap2\n      pop\n      pop\n      jump\t// out\n        /* \"#utility.yul\":2105:3084   */\n    tag_18:\n        /* \"#utility.yul\":2202:2208   */\n      0x00\n        /* \"#utility.yul\":2210:2216   */\n      dup1\n        /* \"#utility.yul\":2218:2224   */\n      0x00\n        /* \"#utility.yul\":2267:2269   */\n      0x60\n        /* \"#utility.yul\":2255:2264   */\n      dup5\n        /* \"#utility.yul\":2246:2253   */\n      dup7\n        /* \"#utility.yul\":2242:2265   */\n      sub\n        /* \"#utility.yul\":2238:2270   */\n      slt\n        /* \"#utility.yul\":2235:2237   */\n      iszero\n      tag_120\n      jumpi\n        /* \"#utility.yul\":2273:2352   */\n      tag_121\n      tag_107\n      jump\t// in\n    tag_121:\n        /* \"#utility.yul\":2235:2237   */\n    tag_120:\n        /* \"#utility.yul\":2393:2394   */\n      0x00\n        /* \"#utility.yul\":2418:2471   */\n      tag_122\n        /* \"#utility.yul\":2463:2470   */\n      dup7\n        /* \"#utility.yul\":2454:2460   */\n      dup3\n        /* \"#utility.yul\":2443:2452   */\n      dup8\n        /* \"#utility.yul\":2439:2461   */\n      add\n        /* \"#utility.yul\":2418:2471   */\n      tag_100\n      jump\t// in\n    tag_122:\n        /* \"#utility.yul\":2408:2471   */\n      swap4\n      pop\n        /* \"#utility.yul\":2364:2481   */\n      pop\n        /* \"#utility.yul\":2548:2550   */\n      0x20\n        /* \"#utility.yul\":2537:2546   */\n      dup5\n        /* \"#utility.yul\":2533:2551   */\n      add\n        /* \"#utility.yul\":2520:2552   */\n      calldataload\n        /* \"#utility.yul\":2579:2597   */\n      0xffffffffffffffff\n        /* \"#utility.yul\":2571:2577   */\n      dup2\n        /* \"#utility.yul\":2568:2598   */\n      gt\n        /* \"#utility.yul\":2565:2567   */\n      iszero\n      tag_123\n      jumpi\n        /* \"#utility.yul\":2601:2680   */\n      tag_124\n      tag_110\n      jump\t// in\n    tag_124:\n        /* \"#utility.yul\":2565:2567   */\n    tag_123:\n        /* \"#utility.yul\":2706:2769   */\n      tag_125\n        /* \"#utility.yul\":2761:2768   */\n      dup7\n        /* \"#utility.yul\":2752:2758   */\n      dup3\n        /* \"#utility.yul\":2741:2750   */\n      dup8\n        /* \"#utility.yul\":2737:2759   */\n      add\n        /* \"#utility.yul\":2706:2769   */\n      tag_94\n      jump\t// in\n    tag_125:\n        /* \"#utility.yul\":2696:2769   */\n      swap3\n      pop\n        /* \"#utility.yul\":2491:2779   */\n      pop\n        /* \"#utility.yul\":2846:2848   */\n      0x40\n        /* \"#utility.yul\":2835:2844   */\n      dup5\n        /* \"#utility.yul\":2831:2849   */\n      add\n        /* \"#utility.yul\":2818:2850   */\n      calldataload\n        /* \"#utility.yul\":2877:2895   */\n      0xffffffffffffffff\n        /* \"#utility.yul\":2869:2875   */\n      dup2\n        /* \"#utility.yul\":2866:2896   */\n      gt\n        /* \"#utility.yul\":2863:2865   */\n      iszero\n      tag_126\n      jumpi\n        /* \"#utility.yul\":2899:2978   */\n      tag_127\n      tag_110\n      jump\t// in\n    tag_127:\n        /* \"#utility.yul\":2863:2865   */\n    tag_126:\n        /* \"#utility.yul\":3004:3067   */\n      tag_128\n        /* \"#utility.yul\":3059:3066   */\n      dup7\n        /* \"#utility.yul\":3050:3056   */\n      dup3\n        /* \"#utility.yul\":3039:3048   */\n      dup8\n        /* \"#utility.yul\":3035:3057   */\n      add\n        /* \"#utility.yul\":3004:3067   */\n      tag_94\n      jump\t// in\n    tag_128:\n        /* \"#utility.yul\":2994:3067   */\n      swap2\n      pop\n        /* \"#utility.yul\":2789:3077   */\n      pop\n        /* \"#utility.yul\":2225:3084   */\n      swap3\n      pop\n      swap3\n      pop\n      swap3\n      jump\t// out\n        /* \"#utility.yul\":3090:3454   */\n    tag_129:\n        /* \"#utility.yul\":3178:3181   */\n      0x00\n        /* \"#utility.yul\":3206:3245   */\n      tag_131\n        /* \"#utility.yul\":3239:3244   */\n      dup3\n        /* \"#utility.yul\":3206:3245   */\n      tag_132\n      jump\t// in\n    tag_131:\n        /* \"#utility.yul\":3261:3332   */\n      tag_133\n        /* \"#utility.yul\":3325:3331   */\n      dup2\n        /* \"#utility.yul\":3320:3323   */\n      dup6\n        /* \"#utility.yul\":3261:3332   */\n      tag_134\n      jump\t// in\n    tag_133:\n        /* \"#utility.yul\":3254:3332   */\n      swap4\n      pop\n        /* \"#utility.yul\":3341:3393   */\n      tag_135\n        /* \"#utility.yul\":3386:3392   */\n      dup2\n        /* \"#utility.yul\":3381:3384   */\n      dup6\n        /* \"#utility.yul\":3374:3378   */\n      0x20\n        /* \"#utility.yul\":3367:3372   */\n      dup7\n        /* \"#utility.yul\":3363:3379   */\n      add\n        /* \"#utility.yul\":3341:3393   */\n      tag_136\n      jump\t// in\n    tag_135:\n        /* \"#utility.yul\":3418:3447   */\n      tag_137\n        /* \"#utility.yul\":3440:3446   */\n      dup2\n        /* \"#utility.yul\":3418:3447   */\n      tag_138\n      jump\t// in\n    tag_137:\n        /* \"#utility.yul\":3413:3416   */\n      dup5\n        /* \"#utility.yul\":3409:3448   */\n      add\n        /* \"#utility.yul\":3402:3448   */\n      swap2\n      pop\n        /* \"#utility.yul\":3182:3454   */\n      pop\n      swap3\n      swap2\n      pop\n      pop\n      jump\t// out\n        /* \"#utility.yul\":3460:3826   */\n    tag_139:\n        /* \"#utility.yul\":3602:3605   */\n      0x00\n        /* \"#utility.yul\":3623:3690   */\n      tag_141\n        /* \"#utility.yul\":3687:3689   */\n      0x0e\n        /* \"#utility.yul\":3682:3685   */\n      dup4\n        /* \"#utility.yul\":3623:3690   */\n      tag_134\n      jump\t// in\n    tag_141:\n        /* \"#utility.yul\":3616:3690   */\n      swap2\n      pop\n        /* \"#utility.yul\":3699:3792   */\n      tag_142\n        /* \"#utility.yul\":3788:3791   */\n      dup3\n        /* \"#utility.yul\":3699:3792   */\n      tag_143\n      jump\t// in\n    tag_142:\n        /* \"#utility.yul\":3817:3819   */\n      0x20\n        /* \"#utility.yul\":3812:3815   */\n      dup3\n        /* \"#utility.yul\":3808:3820   */\n      add\n        /* \"#utility.yul\":3801:3820   */\n      swap1\n      pop\n        /* \"#utility.yul\":3606:3826   */\n      swap2\n      swap1\n      pop\n      jump\t// out\n        /* \"#utility.yul\":3832:3950   */\n    tag_144:\n        /* \"#utility.yul\":3919:3943   */\n      tag_146\n        /* \"#utility.yul\":3937:3942   */\n      dup2\n        /* \"#utility.yul\":3919:3943   */\n      tag_147\n      jump\t// in\n    tag_146:\n        /* \"#utility.yul\":3914:3917   */\n      dup3\n        /* \"#utility.yul\":3907:3944   */\n      mstore\n        /* \"#utility.yul\":3897:3950   */\n      pop\n      pop\n      jump\t// out\n        /* \"#utility.yul\":3956:4375   */\n    tag_71:\n        /* \"#utility.yul\":4122:4126   */\n      0x00\n        /* \"#utility.yul\":4160:4162   */\n      0x20\n        /* \"#utility.yul\":4149:4158   */\n      dup3\n        /* \"#utility.yul\":4145:4163   */\n      add\n        /* \"#utility.yul\":4137:4163   */\n      swap1\n      pop\n        /* \"#utility.yul\":4209:4218   */\n      dup2\n        /* \"#utility.yul\":4203:4207   */\n      dup2\n        /* \"#utility.yul\":4199:4219   */\n      sub\n        /* \"#utility.yul\":4195:4196   */\n      0x00\n        /* \"#utility.yul\":4184:4193   */\n      dup4\n        /* \"#utility.yul\":4180:4197   */\n      add\n        /* \"#utility.yul\":4173:4220   */\n      mstore\n        /* \"#utility.yul\":4237:4368   */\n      tag_149\n        /* \"#utility.yul\":4363:4367   */\n      dup2\n        /* \"#utility.yul\":4237:4368   */\n      tag_139\n      jump\t// in\n    tag_149:\n        /* \"#utility.yul\":4229:4368   */\n      swap1\n      pop\n        /* \"#utility.yul\":4127:4375   */\n      swap2\n      swap1\n      pop\n      jump\t// out\n        /* \"#utility.yul\":4381:5005   */\n    tag_15:\n        /* \"#utility.yul\":4570:4574   */\n      0x00\n        /* \"#utility.yul\":4608:4610   */\n      0x60\n        /* \"#utility.yul\":4597:4606   */\n      dup3\n        /* \"#utility.yul\":4593:4611   */\n      add\n        /* \"#utility.yul\":4585:4611   */\n      swap1\n      pop\n        /* \"#utility.yul\":4621:4692   */\n      tag_151\n        /* \"#utility.yul\":4689:4690   */\n      0x00\n        /* \"#utility.yul\":4678:4687   */\n      dup4\n        /* \"#utility.yul\":4674:4691   */\n      add\n        /* \"#utility.yul\":4665:4671   */\n      dup7\n        /* \"#utility.yul\":4621:4692   */\n      tag_144\n      jump\t// in\n    tag_151:\n        /* \"#utility.yul\":4739:4748   */\n      dup2\n        /* \"#utility.yul\":4733:4737   */\n      dup2\n        /* \"#utility.yul\":4729:4749   */\n      sub\n        /* \"#utility.yul\":4724:4726   */\n      0x20\n        /* \"#utility.yul\":4713:4722   */\n      dup4\n        /* \"#utility.yul\":4709:4727   */\n      add\n        /* \"#utility.yul\":4702:4750   */\n      mstore\n        /* \"#utility.yul\":4767:4845   */\n      tag_152\n        /* \"#utility.yul\":4840:4844   */\n      dup2\n        /* \"#utility.yul\":4831:4837   */\n      dup6\n        /* \"#utility.yul\":4767:4845   */\n      tag_129\n      jump\t// in\n    tag_152:\n        /* \"#utility.yul\":4759:4845   */\n      swap1\n      pop\n        /* \"#utility.yul\":4892:4901   */\n      dup2\n        /* \"#utility.yul\":4886:4890   */\n      dup2\n        /* \"#utility.yul\":4882:4902   */\n      sub\n        /* \"#utility.yul\":4877:4879   */\n      0x40\n        /* \"#utility.yul\":4866:4875   */\n      dup4\n        /* \"#utility.yul\":4862:4880   */\n      add\n        /* \"#utility.yul\":4855:4903   */\n      mstore\n        /* \"#utility.yul\":4920:4998   */\n      tag_153\n        /* \"#utility.yul\":4993:4997   */\n      dup2\n        /* \"#utility.yul\":4984:4990   */\n      dup5\n        /* \"#utility.yul\":4920:4998   */\n      tag_129\n      jump\t// in\n    tag_153:\n        /* \"#utility.yul\":4912:4998   */\n      swap1\n      pop\n        /* \"#utility.yul\":4575:5005   */\n      swap5\n      swap4\n      pop\n      pop\n      pop\n      pop\n      jump\t// out\n        /* \"#utility.yul\":5011:5140   */\n    tag_88:\n        /* \"#utility.yul\":5045:5051   */\n      0x00\n        /* \"#utility.yul\":5072:5092   */\n      tag_155\n      tag_156\n      jump\t// in\n    tag_155:\n        /* \"#utility.yul\":5062:5092   */\n      swap1\n      pop\n        /* \"#utility.yul\":5101:5134   */\n      tag_157\n        /* \"#utility.yul\":5129:5133   */\n      dup3\n        /* \"#utility.yul\":5121:5127   */\n      dup3\n        /* \"#utility.yul\":5101:5134   */\n      tag_158\n      jump\t// in\n    tag_157:\n        /* \"#utility.yul\":5052:5140   */\n      swap2\n      swap1\n      pop\n      jump\t// out\n        /* \"#utility.yul\":5146:5221   */\n    tag_156:\n        /* \"#utility.yul\":5179:5185   */\n      0x00\n        /* \"#utility.yul\":5212:5214   */\n      0x40\n        /* \"#utility.yul\":5206:5215   */\n      mload\n        /* \"#utility.yul\":5196:5215   */\n      swap1\n      pop\n        /* \"#utility.yul\":5186:5221   */\n      swap1\n      jump\t// out\n        /* \"#utility.yul\":5227:5535   */\n    tag_87:\n        /* \"#utility.yul\":5289:5293   */\n      0x00\n        /* \"#utility.yul\":5379:5397   */\n      0xffffffffffffffff\n        /* \"#utility.yul\":5371:5377   */\n      dup3\n        /* \"#utility.yul\":5368:5398   */\n      gt\n        /* \"#utility.yul\":5365:5367   */\n      iszero\n      tag_161\n      jumpi\n        /* \"#utility.yul\":5401:5419   */\n      tag_162\n      tag_163\n      jump\t// in\n    tag_162:\n        /* \"#utility.yul\":5365:5367   */\n    tag_161:\n        /* \"#utility.yul\":5439:5468   */\n      tag_164\n        /* \"#utility.yul\":5461:5467   */\n      dup3\n        /* \"#utility.yul\":5439:5468   */\n      tag_138\n      jump\t// in\n    tag_164:\n        /* \"#utility.yul\":5431:5468   */\n      swap1\n      pop\n        /* \"#utility.yul\":5523:5527   */\n      0x20\n        /* \"#utility.yul\":5517:5521   */\n      dup2\n        /* \"#utility.yul\":5513:5528   */\n      add\n        /* \"#utility.yul\":5505:5528   */\n      swap1\n      pop\n        /* \"#utility.yul\":5294:5535   */\n      swap2\n      swap1\n      pop\n      jump\t// out\n        /* \"#utility.yul\":5541:5640   */\n    tag_132:\n        /* \"#utility.yul\":5593:5599   */\n      0x00\n        /* \"#utility.yul\":5627:5632   */\n      dup2\n        /* \"#utility.yul\":5621:5633   */\n      mload\n        /* \"#utility.yul\":5611:5633   */\n      swap1\n      pop\n        /* \"#utility.yul\":5600:5640   */\n      swap2\n      swap1\n      pop\n      jump\t// out\n        /* \"#utility.yul\":5646:5815   */\n    tag_134:\n        /* \"#utility.yul\":5730:5741   */\n      0x00\n        /* \"#utility.yul\":5764:5770   */\n      dup3\n        /* \"#utility.yul\":5759:5762   */\n      dup3\n        /* \"#utility.yul\":5752:5771   */\n      mstore\n        /* \"#utility.yul\":5804:5808   */\n      0x20\n        /* \"#utility.yul\":5799:5802   */\n      dup3\n        /* \"#utility.yul\":5795:5809   */\n      add\n        /* \"#utility.yul\":5780:5809   */\n      swap1\n      pop\n        /* \"#utility.yul\":5742:5815   */\n      swap3\n      swap2\n      pop\n      pop\n      jump\t// out\n        /* \"#utility.yul\":5821:5898   */\n    tag_147:\n        /* \"#utility.yul\":5858:5865   */\n      0x00\n        /* \"#utility.yul\":5887:5892   */\n      dup2\n        /* \"#utility.yul\":5876:5892   */\n      swap1\n      pop\n        /* \"#utility.yul\":5866:5898   */\n      swap2\n      swap1\n      pop\n      jump\t// out\n        /* \"#utility.yul\":5904:6058   */\n    tag_93:\n        /* \"#utility.yul\":5988:5994   */\n      dup3\n        /* \"#utility.yul\":5983:5986   */\n      dup2\n        /* \"#utility.yul\":5978:5981   */\n      dup4\n        /* \"#utility.yul\":5965:5995   */\n      calldatacopy\n        /* \"#utility.yul\":6050:6051   */\n      0x00\n        /* \"#utility.yul\":6041:6047   */\n      dup4\n        /* \"#utility.yul\":6036:6039   */\n      dup4\n        /* \"#utility.yul\":6032:6048   */\n      add\n        /* \"#utility.yul\":6025:6052   */\n      mstore\n        /* \"#utility.yul\":5955:6058   */\n      pop\n      pop\n      pop\n      jump\t// out\n        /* \"#utility.yul\":6064:6371   */\n    tag_136:\n        /* \"#utility.yul\":6132:6133   */\n      0x00\n        /* \"#utility.yul\":6142:6255   */\n    tag_170:\n        /* \"#utility.yul\":6156:6162   */\n      dup4\n        /* \"#utility.yul\":6153:6154   */\n      dup2\n        /* \"#utility.yul\":6150:6163   */\n      lt\n        /* \"#utility.yul\":6142:6255   */\n      iszero\n      tag_172\n      jumpi\n        /* \"#utility.yul\":6241:6242   */\n      dup1\n        /* \"#utility.yul\":6236:6239   */\n      dup3\n        /* \"#utility.yul\":6232:6243   */\n      add\n        /* \"#utility.yul\":6226:6244   */\n      mload\n        /* \"#utility.yul\":6222:6223   */\n      dup2\n        /* \"#utility.yul\":6217:6220   */\n      dup5\n        /* \"#utility.yul\":6213:6224   */\n      add\n        /* \"#utility.yul\":6206:6245   */\n      mstore\n        /* \"#utility.yul\":6178:6180   */\n      0x20\n        /* \"#utility.yul\":6175:6176   */\n      dup2\n        /* \"#utility.yul\":6171:6181   */\n      add\n        /* \"#utility.yul\":6166:6181   */\n      swap1\n      pop\n        /* \"#utility.yul\":6142:6255   */\n      jump(tag_170)\n    tag_172:\n        /* \"#utility.yul\":6273:6279   */\n      dup4\n        /* \"#utility.yul\":6270:6271   */\n      dup2\n        /* \"#utility.yul\":6267:6280   */\n      gt\n        /* \"#utility.yul\":6264:6266   */\n      iszero\n      tag_173\n      jumpi\n        /* \"#utility.yul\":6353:6354   */\n      0x00\n        /* \"#utility.yul\":6344:6350   */\n      dup5\n        /* \"#utility.yul\":6339:6342   */\n      dup5\n        /* \"#utility.yul\":6335:6351   */\n      add\n        /* \"#utility.yul\":6328:6355   */\n      mstore\n        /* \"#utility.yul\":6264:6266   */\n    tag_173:\n        /* \"#utility.yul\":6113:6371   */\n      pop\n      pop\n      pop\n      pop\n      jump\t// out\n        /* \"#utility.yul\":6377:6697   */\n    tag_41:\n        /* \"#utility.yul\":6421:6427   */\n      0x00\n        /* \"#utility.yul\":6458:6459   */\n      0x02\n        /* \"#utility.yul\":6452:6456   */\n      dup3\n        /* \"#utility.yul\":6448:6460   */\n      div\n        /* \"#utility.yul\":6438:6460   */\n      swap1\n      pop\n        /* \"#utility.yul\":6505:6506   */\n      0x01\n        /* \"#utility.yul\":6499:6503   */\n      dup3\n        /* \"#utility.yul\":6495:6507   */\n      and\n        /* \"#utility.yul\":6526:6544   */\n      dup1\n        /* \"#utility.yul\":6516:6518   */\n      tag_175\n      jumpi\n        /* \"#utility.yul\":6582:6586   */\n      0x7f\n        /* \"#utility.yul\":6574:6580   */\n      dup3\n        /* \"#utility.yul\":6570:6587   */\n      and\n        /* \"#utility.yul\":6560:6587   */\n      swap2\n      pop\n        /* \"#utility.yul\":6516:6518   */\n    tag_175:\n        /* \"#utility.yul\":6644:6646   */\n      0x20\n        /* \"#utility.yul\":6636:6642   */\n      dup3\n        /* \"#utility.yul\":6633:6647   */\n      lt\n        /* \"#utility.yul\":6613:6631   */\n      dup2\n        /* \"#utility.yul\":6610:6648   */\n      eq\n        /* \"#utility.yul\":6607:6609   */\n      iszero\n      tag_176\n      jumpi\n        /* \"#utility.yul\":6663:6681   */\n      tag_177\n      tag_178\n      jump\t// in\n    tag_177:\n        /* \"#utility.yul\":6607:6609   */\n    tag_176:\n        /* \"#utility.yul\":6428:6697   */\n      pop\n      swap2\n      swap1\n      pop\n      jump\t// out\n        /* \"#utility.yul\":6703:6984   */\n    tag_158:\n        /* \"#utility.yul\":6786:6813   */\n      tag_180\n        /* \"#utility.yul\":6808:6812   */\n      dup3\n        /* \"#utility.yul\":6786:6813   */\n      tag_138\n      jump\t// in\n    tag_180:\n        /* \"#utility.yul\":6778:6784   */\n      dup2\n        /* \"#utility.yul\":6774:6814   */\n      add\n        /* \"#utility.yul\":6916:6922   */\n      dup2\n        /* \"#utility.yul\":6904:6914   */\n      dup2\n        /* \"#utility.yul\":6901:6923   */\n      lt\n        /* \"#utility.yul\":6880:6898   */\n      0xffffffffffffffff\n        /* \"#utility.yul\":6868:6878   */\n      dup3\n        /* \"#utility.yul\":6865:6899   */\n      gt\n        /* \"#utility.yul\":6862:6924   */\n      or\n        /* \"#utility.yul\":6859:6861   */\n      iszero\n      tag_181\n      jumpi\n        /* \"#utility.yul\":6927:6945   */\n      tag_182\n      tag_163\n      jump\t// in\n    tag_182:\n        /* \"#utility.yul\":6859:6861   */\n    tag_181:\n        /* \"#utility.yul\":6967:6977   */\n      dup1\n        /* \"#utility.yul\":6963:6965   */\n      0x40\n        /* \"#utility.yul\":6956:6978   */\n      mstore\n        /* \"#utility.yul\":6746:6984   */\n      pop\n      pop\n      pop\n      jump\t// out\n        /* \"#utility.yul\":6990:7223   */\n    tag_26:\n        /* \"#utility.yul\":7029:7032   */\n      0x00\n        /* \"#utility.yul\":7052:7076   */\n      tag_184\n        /* \"#utility.yul\":7070:7075   */\n      dup3\n        /* \"#utility.yul\":7052:7076   */\n      tag_147\n      jump\t// in\n    tag_184:\n        /* \"#utility.yul\":7043:7076   */\n      swap2\n      pop\n        /* \"#utility.yul\":7098:7164   */\n      0xffffffffffffffffffffffffffffffffffffffffffffffffffffffffffffffff\n        /* \"#utility.yul\":7091:7096   */\n      dup3\n        /* \"#utility.yul\":7088:7165   */\n      eq\n        /* \"#utility.yul\":7085:7087   */\n      iszero\n      tag_185\n      jumpi\n        /* \"#utility.yul\":7168:7186   */\n      tag_186\n      tag_187\n      jump\t// in\n    tag_186:\n        /* \"#utility.yul\":7085:7087   */\n    tag_185:\n        /* \"#utility.yul\":7215:7216   */\n      0x01\n        /* \"#utility.yul\":7208:7213   */\n      dup3\n        /* \"#utility.yul\":7204:7217   */\n      add\n        /* \"#utility.yul\":7197:7217   */\n      swap1\n      pop\n        /* \"#utility.yul\":7033:7223   */\n      swap2\n      swap1\n      pop\n      jump\t// out\n        /* \"#utility.yul\":7229:7409   */\n    tag_187:\n        /* \"#utility.yul\":7277:7354   */\n      0x4e487b7100000000000000000000000000000000000000000000000000000000\n        /* \"#utility.yul\":7274:7275   */\n      0x00\n        /* \"#utility.yul\":7267:7355   */\n      mstore\n        /* \"#utility.yul\":7374:7378   */\n      0x11\n        /* \"#utility.yul\":7371:7372   */\n      0x04\n        /* \"#utility.yul\":7364:7379   */\n      mstore\n        /* \"#utility.yul\":7398:7402   */\n      0x24\n        /* \"#utility.yul\":7395:7396   */\n      0x00\n        /* \"#utility.yul\":7388:7403   */\n      revert\n        /* \"#utility.yul\":7415:7595   */\n    tag_178:\n        /* \"#utility.yul\":7463:7540   */\n      0x4e487b7100000000000000000000000000000000000000000000000000000000\n        /* \"#utility.yul\":7460:7461   */\n      0x00\n        /* \"#utility.yul\":7453:7541   */\n      mstore\n        /* \"#utility.yul\":7560:7564   */\n      0x22\n        /* \"#utility.yul\":7557:7558   */\n      0x04\n        /* \"#utility.yul\":7550:7565   */\n      mstore\n        /* \"#utility.yul\":7584:7588   */\n      0x24\n        /* \"#utility.yul\":7581:7582   */\n      0x00\n        /* \"#utility.yul\":7574:7589   */\n      revert\n        /* \"#utility.yul\":7601:7781   */\n    tag_32:\n        /* \"#utility.yul\":7649:7726   */\n      0x4e487b7100000000000000000000000000000000000000000000000000000000\n        /* \"#utility.yul\":7646:7647   */\n      0x00\n        /* \"#utility.yul\":7639:7727   */\n      mstore\n        /* \"#utility.yul\":7746:7750   */\n      0x32\n        /* \"#utility.yul\":7743:7744   */\n      0x04\n        /* \"#utility.yul\":7736:7751   */\n      mstore\n        /* \"#utility.yul\":7770:7774   */\n      0x24\n        /* \"#utility.yul\":7767:7768   */\n      0x00\n        /* \"#utility.yul\":7760:7775   */\n      revert\n        /* \"#utility.yul\":7787:7967   */\n    tag_163:\n        /* \"#utility.yul\":7835:7912   */\n      0x4e487b7100000000000000000000000000000000000000000000000000000000\n        /* \"#utility.yul\":7832:7833   */\n      0x00\n        /* \"#utility.yul\":7825:7913   */\n      mstore\n        /* \"#utility.yul\":7932:7936   */\n      0x41\n        /* \"#utility.yul\":7929:7930   */\n      0x04\n        /* \"#utility.yul\":7922:7937   */\n      mstore\n        /* \"#utility.yul\":7956:7960   */\n      0x24\n        /* \"#utility.yul\":7953:7954   */\n      0x00\n        /* \"#utility.yul\":7946:7961   */\n      revert\n        /* \"#utility.yul\":7973:8090   */\n    tag_98:\n        /* \"#utility.yul\":8082:8083   */\n      0x00\n        /* \"#utility.yul\":8079:8080   */\n      dup1\n        /* \"#utility.yul\":8072:8084   */\n      revert\n        /* \"#utility.yul\":8096:8213   */\n    tag_91:\n        /* \"#utility.yul\":8205:8206   */\n      0x00\n        /* \"#utility.yul\":8202:8203   */\n      dup1\n        /* \"#utility.yul\":8195:8207   */\n      revert\n        /* \"#utility.yul\":8219:8336   */\n    tag_110:\n        /* \"#utility.yul\":8328:8329   */\n      0x00\n        /* \"#utility.yul\":8325:8326   */\n      dup1\n        /* \"#utility.yul\":8318:8330   */\n      revert\n        /* \"#utility.yul\":8342:8459   */\n    tag_107:\n        /* \"#utility.yul\":8451:8452   */\n      0x00\n        /* \"#utility.yul\":8448:8449   */\n      dup1\n        /* \"#utility.yul\":8441:8453   */\n      revert\n        /* \"#utility.yul\":8465:8567   */\n    tag_138:\n        /* \"#utility.yul\":8506:8512   */\n      0x00\n        /* \"#utility.yul\":8557:8559   */\n      0x1f\n        /* \"#utility.yul\":8553:8560   */\n      not\n        /* \"#utility.yul\":8548:8550   */\n      0x1f\n        /* \"#utility.yul\":8541:8546   */\n      dup4\n        /* \"#utility.yul\":8537:8551   */\n      add\n        /* \"#utility.yul\":8533:8561   */\n      and\n        /* \"#utility.yul\":8523:8561   */\n      swap1\n      pop\n        /* \"#utility.yul\":8513:8567   */\n      swap2\n      swap1\n      pop\n      jump\t// out\n        /* \"#utility.yul\":8573:8737   */\n    tag_143:\n        /* \"#utility.yul\":8713:8729   */\n      0x5461736b206e6f7420666f756e64000000000000000000000000000000000000\n        /* \"#utility.yul\":8709:8710   */\n      0x00\n        /* \"#utility.yul\":8701:8707   */\n      dup3\n        /* \"#utility.yul\":8697:8711   */\n      add\n        /* \"#utility.yul\":8690:8730   */\n      mstore\n        /* \"#utility.yul\":8679:8737   */\n      pop\n      jump\t// out\n        /* \"#utility.yul\":8743:8865   */\n    tag_103:\n        /* \"#utility.yul\":8816:8840   */\n      tag_199\n        /* \"#utility.yul\":8834:8839   */\n      dup2\n        /* \"#utility.yul\":8816:8840   */\n      tag_147\n      jump\t// in\n    tag_199:\n        /* \"#utility.yul\":8809:8814   */\n      dup2\n        /* \"#utility.yul\":8806:8841   */\n      eq\n        /* \"#utility.yul\":8796:8798   */\n      tag_200\n      jumpi\n        /* \"#utility.yul\":8855:8856   */\n      0x00\n        /* \"#utility.yul\":8852:8853   */\n      dup1\n        /* \"#utility.yul\":8845:8857   */\n      revert\n        /* \"#utility.yul\":8796:8798   */\n    tag_200:\n        /* \"#utility.yul\":8786:8865   */\n      pop\n      jump\t// out\n\n    auxdata: 0xa264697066735822122083ad61755da02f8230b1132c1f448bc20ed4679b98dd8d130bda6cbeb764079d64736f6c63430008060033\n}\n",
				"bytecode": {
					"linkReferences": {},
					"object": "608060405234801561001057600080fd5b50610a10806100206000396000f3fe608060405234801561001057600080fd5b50600436106100415760003560e01c8063292a458514610046578063ab755faf14610062578063c72ef41f14610094575b600080fd5b610060600480360381019061005b919061054f565b6100b0565b005b61007c600480360381019061007791906105c7565b610159565b60405161008b9392919061070a565b60405180910390f35b6100ae60048036038101906100a991906105f4565b610301565b005b60016040518060600160405280600054815260200184815260200183815250908060018154018082558091505060019003906000526020600020906003020160009091909190915060008201518160000155602082015181600101908051906020019061011e929190610427565b50604082015181600201908051906020019061013b929190610427565b50505060008081548092919061015090610870565b91905055505050565b6000606080600061016985610388565b90506001818154811061017f5761017e610917565b5b906000526020600020906003020160000154600182815481106101a5576101a4610917565b5b9060005260206000209060030201600101600183815481106101ca576101c9610917565b5b90600052602060002090600302016002018180546101e79061080d565b80601f01602080910402602001604051908101604052809291908181526020018280546102139061080d565b80156102605780601f1061023557610100808354040283529160200191610260565b820191906000526020600020905b81548152906001019060200180831161024357829003601f168201915b505050505091508080546102739061080d565b80601f016020809104026020016040519081016040528092919081815260200182805461029f9061080d565b80156102ec5780601f106102c1576101008083540402835291602001916102ec565b820191906000526020600020905b8154815290600101906020018083116102cf57829003601f168201915b50505050509050935093509350509193909250565b600061030c84610388565b9050826001828154811061032357610322610917565b5b90600052602060002090600302016001019080519060200190610347929190610427565b50816001828154811061035d5761035c610917565b5b90600052602060002090600302016002019080519060200190610381929190610427565b5050505050565b600080600090505b6001805490508110156103e65782600182815481106103b2576103b1610917565b5b90600052602060002090600302016000015414156103d35780915050610422565b80806103de90610870565b915050610390565b506040517f08c379a0000000000000000000000000000000000000000000000000000000008152600401610419906106ea565b60405180910390fd5b919050565b8280546104339061080d565b90600052602060002090601f016020900481019282610455576000855561049c565b82601f1061046e57805160ff191683800117855561049c565b8280016001018555821561049c579182015b8281111561049b578251825591602001919060010190610480565b5b5090506104a991906104ad565b5090565b5b808211156104c65760008160009055506001016104ae565b5090565b60006104dd6104d884610774565b61074f565b9050828152602081018484840111156104f9576104f861097a565b5b6105048482856107cb565b509392505050565b600082601f83011261052157610520610975565b5b81356105318482602086016104ca565b91505092915050565b600081359050610549816109c3565b92915050565b6000806040838503121561056657610565610984565b5b600083013567ffffffffffffffff8111156105845761058361097f565b5b6105908582860161050c565b925050602083013567ffffffffffffffff8111156105b1576105b061097f565b5b6105bd8582860161050c565b9150509250929050565b6000602082840312156105dd576105dc610984565b5b60006105eb8482850161053a565b91505092915050565b60008060006060848603121561060d5761060c610984565b5b600061061b8682870161053a565b935050602084013567ffffffffffffffff81111561063c5761063b61097f565b5b6106488682870161050c565b925050604084013567ffffffffffffffff8111156106695761066861097f565b5b6106758682870161050c565b9150509250925092565b600061068a826107a5565b61069481856107b0565b93506106a48185602086016107da565b6106ad81610989565b840191505092915050565b60006106c5600e836107b0565b91506106d08261099a565b602082019050919050565b6106e4816107c1565b82525050565b60006020820190508181036000830152610703816106b8565b9050919050565b600060608201905061071f60008301866106db565b8181036020830152610731818561067f565b90508181036040830152610745818461067f565b9050949350505050565b600061075961076a565b9050610765828261083f565b919050565b6000604051905090565b600067ffffffffffffffff82111561078f5761078e610946565b5b61079882610989565b9050602081019050919050565b600081519050919050565b600082825260208201905092915050565b6000819050919050565b82818337600083830152505050565b60005b838110156107f85780820151818401526020810190506107dd565b83811115610807576000848401525b50505050565b6000600282049050600182168061082557607f821691505b60208210811415610839576108386108e8565b5b50919050565b61084882610989565b810181811067ffffffffffffffff8211171561086757610866610946565b5b80604052505050565b600061087b826107c1565b91507fffffffffffffffffffffffffffffffffffffffffffffffffffffffffffffffff8214156108ae576108ad6108b9565b5b600182019050919050565b7f4e487b7100000000000000000000000000000000000000000000000000000000600052601160045260246000fd5b7f4e487b7100000000000000000000000000000000000000000000000000000000600052602260045260246000fd5b7f4e487b7100000000000000000000000000000000000000000000000000000000600052603260045260246000fd5b7f4e487b7100000000000000000000000000000000000000000000000000000000600052604160045260246000fd5b600080fd5b600080fd5b600080fd5b600080fd5b6000601f19601f8301169050919050565b7f5461736b206e6f7420666f756e64000000000000000000000000000000000000600082015250565b6109cc816107c1565b81146109d757600080fd5b5056fea264697066735822122083ad61755da02f8230b1132c1f448bc20ed4679b98dd8d130bda6cbeb764079d64736f6c63430008060033",
					"opcodes": "PUSH1 0x80 PUSH1 0x40 MSTORE CALLVALUE DUP1 ISZERO PUSH2 0x10 JUMPI PUSH1 0x0 DUP1 REVERT JUMPDEST POP PUSH2 0xA10 DUP1 PUSH2 0x20 PUSH1 0x0 CODECOPY PUSH1 0x0 RETURN INVALID PUSH1 0x80 PUSH1 0x40 MSTORE CALLVALUE DUP1 ISZERO PUSH2 0x10 JUMPI PUSH1 0x0 DUP1 REVERT JUMPDEST POP PUSH1 0x4 CALLDATASIZE LT PUSH2 0x41 JUMPI PUSH1 0x0 CALLDATALOAD PUSH1 0xE0 SHR DUP1 PUSH4 0x292A4585 EQ PUSH2 0x46 JUMPI DUP1 PUSH4 0xAB755FAF EQ PUSH2 0x62 JUMPI DUP1 PUSH4 0xC72EF41F EQ PUSH2 0x94 JUMPI JUMPDEST PUSH1 0x0 DUP1 REVERT JUMPDEST PUSH2 0x60 PUSH1 0x4 DUP1 CALLDATASIZE SUB DUP2 ADD SWAP1 PUSH2 0x5B SWAP2 SWAP1 PUSH2 0x54F JUMP JUMPDEST PUSH2 0xB0 JUMP JUMPDEST STOP JUMPDEST PUSH2 0x7C PUSH1 0x4 DUP1 CALLDATASIZE SUB DUP2 ADD SWAP1 PUSH2 0x77 SWAP2 SWAP1 PUSH2 0x5C7 JUMP JUMPDEST PUSH2 0x159 JUMP JUMPDEST PUSH1 0x40 MLOAD PUSH2 0x8B SWAP4 SWAP3 SWAP2 SWAP1 PUSH2 0x70A JUMP JUMPDEST PUSH1 0x40 MLOAD DUP1 SWAP2 SUB SWAP1 RETURN JUMPDEST PUSH2 0xAE PUSH1 0x4 DUP1 CALLDATASIZE SUB DUP2 ADD SWAP1 PUSH2 0xA9 SWAP2 SWAP1 PUSH2 0x5F4 JUMP JUMPDEST PUSH2 0x301 JUMP JUMPDEST STOP JUMPDEST PUSH1 0x1 PUSH1 0x40 MLOAD DUP1 PUSH1 0x60 ADD PUSH1 0x40 MSTORE DUP1 PUSH1 0x0 SLOAD DUP2 MSTORE PUSH1 0x20 ADD DUP5 DUP2 MSTORE PUSH1 0x20 ADD DUP4 DUP2 MSTORE POP SWAP1 DUP1 PUSH1 0x1 DUP2 SLOAD ADD DUP1 DUP3 SSTORE DUP1 SWAP2 POP POP PUSH1 0x1 SWAP1 SUB SWAP1 PUSH1 0x0 MSTORE PUSH1 0x20 PUSH1 0x0 KECCAK256 SWAP1 PUSH1 0x3 MUL ADD PUSH1 0x0 SWAP1 SWAP2 SWAP1 SWAP2 SWAP1 SWAP2 POP PUSH1 0x0 DUP3 ADD MLOAD DUP2 PUSH1 0x0 ADD SSTORE PUSH1 0x20 DUP3 ADD MLOAD DUP2 PUSH1 0x1 ADD SWAP1 DUP1 MLOAD SWAP1 PUSH1 0x20 ADD SWAP1 PUSH2 0x11E SWAP3 SWAP2 SWAP1 PUSH2 0x427 JUMP JUMPDEST POP PUSH1 0x40 DUP3 ADD MLOAD DUP2 PUSH1 0x2 ADD SWAP1 DUP1 MLOAD SWAP1 PUSH1 0x20 ADD SWAP1 PUSH2 0x13B SWAP3 SWAP2 SWAP1 PUSH2 0x427 JUMP JUMPDEST POP POP POP PUSH1 0x0 DUP1 DUP2 SLOAD DUP1 SWAP3 SWAP2 SWAP1 PUSH2 0x150 SWAP1 PUSH2 0x870 JUMP JUMPDEST SWAP2 SWAP1 POP SSTORE POP POP POP JUMP JUMPDEST PUSH1 0x0 PUSH1 0x60 DUP1 PUSH1 0x0 PUSH2 0x169 DUP6 PUSH2 0x388 JUMP JUMPDEST SWAP1 POP PUSH1 0x1 DUP2 DUP2 SLOAD DUP2 LT PUSH2 0x17F JUMPI PUSH2 0x17E PUSH2 0x917 JUMP JUMPDEST JUMPDEST SWAP1 PUSH1 0x0 MSTORE PUSH1 0x20 PUSH1 0x0 KECCAK256 SWAP1 PUSH1 0x3 MUL ADD PUSH1 0x0 ADD SLOAD PUSH1 0x1 DUP3 DUP2 SLOAD DUP2 LT PUSH2 0x1A5 JUMPI PUSH2 0x1A4 PUSH2 0x917 JUMP JUMPDEST JUMPDEST SWAP1 PUSH1 0x0 MSTORE PUSH1 0x20 PUSH1 0x0 KECCAK256 SWAP1 PUSH1 0x3 MUL ADD PUSH1 0x1 ADD PUSH1 0x1 DUP4 DUP2 SLOAD DUP2 LT PUSH2 0x1CA JUMPI PUSH2 0x1C9 PUSH2 0x917 JUMP JUMPDEST JUMPDEST SWAP1 PUSH1 0x0 MSTORE PUSH1 0x20 PUSH1 0x0 KECCAK256 SWAP1 PUSH1 0x3 MUL ADD PUSH1 0x2 ADD DUP2 DUP1 SLOAD PUSH2 0x1E7 SWAP1 PUSH2 0x80D JUMP JUMPDEST DUP1 PUSH1 0x1F ADD PUSH1 0x20 DUP1 SWAP2 DIV MUL PUSH1 0x20 ADD PUSH1 0x40 MLOAD SWAP1 DUP2 ADD PUSH1 0x40 MSTORE DUP1 SWAP3 SWAP2 SWAP1 DUP2 DUP2 MSTORE PUSH1 0x20 ADD DUP3 DUP1 SLOAD PUSH2 0x213 SWAP1 PUSH2 0x80D JUMP JUMPDEST DUP1 ISZERO PUSH2 0x260 JUMPI DUP1 PUSH1 0x1F LT PUSH2 0x235 JUMPI PUSH2 0x100 DUP1 DUP4 SLOAD DIV MUL DUP4 MSTORE SWAP2 PUSH1 0x20 ADD SWAP2 PUSH2 0x260 JUMP JUMPDEST DUP3 ADD SWAP2 SWAP1 PUSH1 0x0 MSTORE PUSH1 0x20 PUSH1 0x0 KECCAK256 SWAP1 JUMPDEST DUP2 SLOAD DUP2 MSTORE SWAP1 PUSH1 0x1 ADD SWAP1 PUSH1 0x20 ADD DUP1 DUP4 GT PUSH2 0x243 JUMPI DUP3 SWAP1 SUB PUSH1 0x1F AND DUP3 ADD SWAP2 JUMPDEST POP POP POP POP POP SWAP2 POP DUP1 DUP1 SLOAD PUSH2 0x273 SWAP1 PUSH2 0x80D JUMP JUMPDEST DUP1 PUSH1 0x1F ADD PUSH1 0x20 DUP1 SWAP2 DIV MUL PUSH1 0x20 ADD PUSH1 0x40 MLOAD SWAP1 DUP2 ADD PUSH1 0x40 MSTORE DUP1 SWAP3 SWAP2 SWAP1 DUP2 DUP2 MSTORE PUSH1 0x20 ADD DUP3 DUP1 SLOAD PUSH2 0x29F SWAP1 PUSH2 0x80D JUMP JUMPDEST DUP1 ISZERO PUSH2 0x2EC JUMPI DUP1 PUSH1 0x1F LT PUSH2 0x2C1 JUMPI PUSH2 0x100 DUP1 DUP4 SLOAD DIV MUL DUP4 MSTORE SWAP2 PUSH1 0x20 ADD SWAP2 PUSH2 0x2EC JUMP JUMPDEST DUP3 ADD SWAP2 SWAP1 PUSH1 0x0 MSTORE PUSH1 0x20 PUSH1 0x0 KECCAK256 SWAP1 JUMPDEST DUP2 SLOAD DUP2 MSTORE SWAP1 PUSH1 0x1 ADD SWAP1 PUSH1 0x20 ADD DUP1 DUP4 GT PUSH2 0x2CF JUMPI DUP3 SWAP1 SUB PUSH1 0x1F AND DUP3 ADD SWAP2 JUMPDEST POP POP POP POP POP SWAP1 POP SWAP4 POP SWAP4 POP SWAP4 POP POP SWAP2 SWAP4 SWAP1 SWAP3 POP JUMP JUMPDEST PUSH1 0x0 PUSH2 0x30C DUP5 PUSH2 0x388 JUMP JUMPDEST SWAP1 POP DUP3 PUSH1 0x1 DUP3 DUP2 SLOAD DUP2 LT PUSH2 0x323 JUMPI PUSH2 0x322 PUSH2 0x917 JUMP JUMPDEST JUMPDEST SWAP1 PUSH1 0x0 MSTORE PUSH1 0x20 PUSH1 0x0 KECCAK256 SWAP1 PUSH1 0x3 MUL ADD PUSH1 0x1 ADD SWAP1 DUP1 MLOAD SWAP1 PUSH1 0x20 ADD SWAP1 PUSH2 0x347 SWAP3 SWAP2 SWAP1 PUSH2 0x427 JUMP JUMPDEST POP DUP2 PUSH1 0x1 DUP3 DUP2 SLOAD DUP2 LT PUSH2 0x35D JUMPI PUSH2 0x35C PUSH2 0x917 JUMP JUMPDEST JUMPDEST SWAP1 PUSH1 0x0 MSTORE PUSH1 0x20 PUSH1 0x0 KECCAK256 SWAP1 PUSH1 0x3 MUL ADD PUSH1 0x2 ADD SWAP1 DUP1 MLOAD SWAP1 PUSH1 0x20 ADD SWAP1 PUSH2 0x381 SWAP3 SWAP2 SWAP1 PUSH2 0x427 JUMP JUMPDEST POP POP POP POP POP JUMP JUMPDEST PUSH1 0x0 DUP1 PUSH1 0x0 SWAP1 POP JUMPDEST PUSH1 0x1 DUP1 SLOAD SWAP1 POP DUP2 LT ISZERO PUSH2 0x3E6 JUMPI DUP3 PUSH1 0x1 DUP3 DUP2 SLOAD DUP2 LT PUSH2 0x3B2 JUMPI PUSH2 0x3B1 PUSH2 0x917 JUMP JUMPDEST JUMPDEST SWAP1 PUSH1 0x0 MSTORE PUSH1 0x20 PUSH1 0x0 KECCAK256 SWAP1 PUSH1 0x3 MUL ADD PUSH1 0x0 ADD SLOAD EQ ISZERO PUSH2 0x3D3 JUMPI DUP1 SWAP2 POP POP PUSH2 0x422 JUMP JUMPDEST DUP1 DUP1 PUSH2 0x3DE SWAP1 PUSH2 0x870 JUMP JUMPDEST SWAP2 POP POP PUSH2 0x390 JUMP JUMPDEST POP PUSH1 0x40 MLOAD PUSH32 0x8C379A000000000000000000000000000000000000000000000000000000000 DUP2 MSTORE PUSH1 0x4 ADD PUSH2 0x419 SWAP1 PUSH2 0x6EA JUMP JUMPDEST PUSH1 0x40 MLOAD DUP1 SWAP2 SUB SWAP1 REVERT JUMPDEST SWAP2 SWAP1 POP JUMP JUMPDEST DUP3 DUP1 SLOAD PUSH2 0x433 SWAP1 PUSH2 0x80D JUMP JUMPDEST SWAP1 PUSH1 0x0 MSTORE PUSH1 0x20 PUSH1 0x0 KECCAK256 SWAP1 PUSH1 0x1F ADD PUSH1 0x20 SWAP1 DIV DUP2 ADD SWAP3 DUP3 PUSH2 0x455 JUMPI PUSH1 0x0 DUP6 SSTORE PUSH2 0x49C JUMP JUMPDEST DUP3 PUSH1 0x1F LT PUSH2 0x46E JUMPI DUP1 MLOAD PUSH1 0xFF NOT AND DUP4 DUP1 ADD OR DUP6 SSTORE PUSH2 0x49C JUMP JUMPDEST DUP3 DUP1 ADD PUSH1 0x1 ADD DUP6 SSTORE DUP3 ISZERO PUSH2 0x49C JUMPI SWAP2 DUP3 ADD JUMPDEST DUP3 DUP2 GT ISZERO PUSH2 0x49B JUMPI DUP3 MLOAD DUP3 SSTORE SWAP2 PUSH1 0x20 ADD SWAP2 SWAP1 PUSH1 0x1 ADD SWAP1 PUSH2 0x480 JUMP JUMPDEST JUMPDEST POP SWAP1 POP PUSH2 0x4A9 SWAP2 SWAP1 PUSH2 0x4AD JUMP JUMPDEST POP SWAP1 JUMP JUMPDEST JUMPDEST DUP1 DUP3 GT ISZERO PUSH2 0x4C6 JUMPI PUSH1 0x0 DUP2 PUSH1 0x0 SWAP1 SSTORE POP PUSH1 0x1 ADD PUSH2 0x4AE JUMP JUMPDEST POP SWAP1 JUMP JUMPDEST PUSH1 0x0 PUSH2 0x4DD PUSH2 0x4D8 DUP5 PUSH2 0x774 JUMP JUMPDEST PUSH2 0x74F JUMP JUMPDEST SWAP1 POP DUP3 DUP2 MSTORE PUSH1 0x20 DUP2 ADD DUP5 DUP5 DUP5 ADD GT ISZERO PUSH2 0x4F9 JUMPI PUSH2 0x4F8 PUSH2 0x97A JUMP JUMPDEST JUMPDEST PUSH2 0x504 DUP5 DUP3 DUP6 PUSH2 0x7CB JUMP JUMPDEST POP SWAP4 SWAP3 POP POP POP JUMP JUMPDEST PUSH1 0x0 DUP3 PUSH1 0x1F DUP4 ADD SLT PUSH2 0x521 JUMPI PUSH2 0x520 PUSH2 0x975 JUMP JUMPDEST JUMPDEST DUP2 CALLDATALOAD PUSH2 0x531 DUP5 DUP3 PUSH1 0x20 DUP7 ADD PUSH2 0x4CA JUMP JUMPDEST SWAP2 POP POP SWAP3 SWAP2 POP POP JUMP JUMPDEST PUSH1 0x0 DUP2 CALLDATALOAD SWAP1 POP PUSH2 0x549 DUP2 PUSH2 0x9C3 JUMP JUMPDEST SWAP3 SWAP2 POP POP JUMP JUMPDEST PUSH1 0x0 DUP1 PUSH1 0x40 DUP4 DUP6 SUB SLT ISZERO PUSH2 0x566 JUMPI PUSH2 0x565 PUSH2 0x984 JUMP JUMPDEST JUMPDEST PUSH1 0x0 DUP4 ADD CALLDATALOAD PUSH8 0xFFFFFFFFFFFFFFFF DUP2 GT ISZERO PUSH2 0x584 JUMPI PUSH2 0x583 PUSH2 0x97F JUMP JUMPDEST JUMPDEST PUSH2 0x590 DUP6 DUP3 DUP7 ADD PUSH2 0x50C JUMP JUMPDEST SWAP3 POP POP PUSH1 0x20 DUP4 ADD CALLDATALOAD PUSH8 0xFFFFFFFFFFFFFFFF DUP2 GT ISZERO PUSH2 0x5B1 JUMPI PUSH2 0x5B0 PUSH2 0x97F JUMP JUMPDEST JUMPDEST PUSH2 0x5BD DUP6 DUP3 DUP7 ADD PUSH2 0x50C JUMP JUMPDEST SWAP2 POP POP SWAP3 POP SWAP3 SWAP1 POP JUMP JUMPDEST PUSH1 0x0 PUSH1 0x20 DUP3 DUP5 SUB SLT ISZERO PUSH2 0x5DD JUMPI PUSH2 0x5DC PUSH2 0x984 JUMP JUMPDEST JUMPDEST PUSH1 0x0 PUSH2 0x5EB DUP5 DUP3 DUP6 ADD PUSH2 0x53A JUMP JUMPDEST SWAP2 POP POP SWAP3 SWAP2 POP POP JUMP JUMPDEST PUSH1 0x0 DUP1 PUSH1 0x0 PUSH1 0x60 DUP5 DUP7 SUB SLT ISZERO PUSH2 0x60D JUMPI PUSH2 0x60C PUSH2 0x984 JUMP JUMPDEST JUMPDEST PUSH1 0x0 PUSH2 0x61B DUP7 DUP3 DUP8 ADD PUSH2 0x53A JUMP JUMPDEST SWAP4 POP POP PUSH1 0x20 DUP5 ADD CALLDATALOAD PUSH8 0xFFFFFFFFFFFFFFFF DUP2 GT ISZERO PUSH2 0x63C JUMPI PUSH2 0x63B PUSH2 0x97F JUMP JUMPDEST JUMPDEST PUSH2 0x648 DUP7 DUP3 DUP8 ADD PUSH2 0x50C JUMP JUMPDEST SWAP3 POP POP PUSH1 0x40 DUP5 ADD CALLDATALOAD PUSH8 0xFFFFFFFFFFFFFFFF DUP2 GT ISZERO PUSH2 0x669 JUMPI PUSH2 0x668 PUSH2 0x97F JUMP JUMPDEST JUMPDEST PUSH2 0x675 DUP7 DUP3 DUP8 ADD PUSH2 0x50C JUMP JUMPDEST SWAP2 POP POP SWAP3 POP SWAP3 POP SWAP3 JUMP JUMPDEST PUSH1 0x0 PUSH2 0x68A DUP3 PUSH2 0x7A5 JUMP JUMPDEST PUSH2 0x694 DUP2 DUP6 PUSH2 0x7B0 JUMP JUMPDEST SWAP4 POP PUSH2 0x6A4 DUP2 DUP6 PUSH1 0x20 DUP7 ADD PUSH2 0x7DA JUMP JUMPDEST PUSH2 0x6AD DUP2 PUSH2 0x989 JUMP JUMPDEST DUP5 ADD SWAP2 POP POP SWAP3 SWAP2 POP POP JUMP JUMPDEST PUSH1 0x0 PUSH2 0x6C5 PUSH1 0xE DUP4 PUSH2 0x7B0 JUMP JUMPDEST SWAP2 POP PUSH2 0x6D0 DUP3 PUSH2 0x99A JUMP JUMPDEST PUSH1 0x20 DUP3 ADD SWAP1 POP SWAP2 SWAP1 POP JUMP JUMPDEST PUSH2 0x6E4 DUP2 PUSH2 0x7C1 JUMP JUMPDEST DUP3 MSTORE POP POP JUMP JUMPDEST PUSH1 0x0 PUSH1 0x20 DUP3 ADD SWAP1 POP DUP2 DUP2 SUB PUSH1 0x0 DUP4 ADD MSTORE PUSH2 0x703 DUP2 PUSH2 0x6B8 JUMP JUMPDEST SWAP1 POP SWAP2 SWAP1 POP JUMP JUMPDEST PUSH1 0x0 PUSH1 0x60 DUP3 ADD SWAP1 POP PUSH2 0x71F PUSH1 0x0 DUP4 ADD DUP7 PUSH2 0x6DB JUMP JUMPDEST DUP2 DUP2 SUB PUSH1 0x20 DUP4 ADD MSTORE PUSH2 0x731 DUP2 DUP6 PUSH2 0x67F JUMP JUMPDEST SWAP1 POP DUP2 DUP2 SUB PUSH1 0x40 DUP4 ADD MSTORE PUSH2 0x745 DUP2 DUP5 PUSH2 0x67F JUMP JUMPDEST SWAP1 POP SWAP5 SWAP4 POP POP POP POP JUMP JUMPDEST PUSH1 0x0 PUSH2 0x759 PUSH2 0x76A JUMP JUMPDEST SWAP1 POP PUSH2 0x765 DUP3 DUP3 PUSH2 0x83F JUMP JUMPDEST SWAP2 SWAP1 POP JUMP JUMPDEST PUSH1 0x0 PUSH1 0x40 MLOAD SWAP1 POP SWAP1 JUMP JUMPDEST PUSH1 0x0 PUSH8 0xFFFFFFFFFFFFFFFF DUP3 GT ISZERO PUSH2 0x78F JUMPI PUSH2 0x78E PUSH2 0x946 JUMP JUMPDEST JUMPDEST PUSH2 0x798 DUP3 PUSH2 0x989 JUMP JUMPDEST SWAP1 POP PUSH1 0x20 DUP2 ADD SWAP1 POP SWAP2 SWAP1 POP JUMP JUMPDEST PUSH1 0x0 DUP2 MLOAD SWAP1 POP SWAP2 SWAP1 POP JUMP JUMPDEST PUSH1 0x0 DUP3 DUP3 MSTORE PUSH1 0x20 DUP3 ADD SWAP1 POP SWAP3 SWAP2 POP POP JUMP JUMPDEST PUSH1 0x0 DUP2 SWAP1 POP SWAP2 SWAP1 POP JUMP JUMPDEST DUP3 DUP2 DUP4 CALLDATACOPY PUSH1 0x0 DUP4 DUP4 ADD MSTORE POP POP POP JUMP JUMPDEST PUSH1 0x0 JUMPDEST DUP4 DUP2 LT ISZERO PUSH2 0x7F8 JUMPI DUP1 DUP3 ADD MLOAD DUP2 DUP5 ADD MSTORE PUSH1 0x20 DUP2 ADD SWAP1 POP PUSH2 0x7DD JUMP JUMPDEST DUP4 DUP2 GT ISZERO PUSH2 0x807 JUMPI PUSH1 0x0 DUP5 DUP5 ADD MSTORE JUMPDEST POP POP POP POP JUMP JUMPDEST PUSH1 0x0 PUSH1 0x2 DUP3 DIV SWAP1 POP PUSH1 0x1 DUP3 AND DUP1 PUSH2 0x825 JUMPI PUSH1 0x7F DUP3 AND SWAP2 POP JUMPDEST PUSH1 0x20 DUP3 LT DUP2 EQ ISZERO PUSH2 0x839 JUMPI PUSH2 0x838 PUSH2 0x8E8 JUMP JUMPDEST JUMPDEST POP SWAP2 SWAP1 POP JUMP JUMPDEST PUSH2 0x848 DUP3 PUSH2 0x989 JUMP JUMPDEST DUP2 ADD DUP2 DUP2 LT PUSH8 0xFFFFFFFFFFFFFFFF DUP3 GT OR ISZERO PUSH2 0x867 JUMPI PUSH2 0x866 PUSH2 0x946 JUMP JUMPDEST JUMPDEST DUP1 PUSH1 0x40 MSTORE POP POP POP JUMP JUMPDEST PUSH1 0x0 PUSH2 0x87B DUP3 PUSH2 0x7C1 JUMP JUMPDEST SWAP2 POP PUSH32 0xFFFFFFFFFFFFFFFFFFFFFFFFFFFFFFFFFFFFFFFFFFFFFFFFFFFFFFFFFFFFFFFF DUP3 EQ ISZERO PUSH2 0x8AE JUMPI PUSH2 0x8AD PUSH2 0x8B9 JUMP JUMPDEST JUMPDEST PUSH1 0x1 DUP3 ADD SWAP1 POP SWAP2 SWAP1 POP JUMP JUMPDEST PUSH32 0x4E487B7100000000000000000000000000000000000000000000000000000000 PUSH1 0x0 MSTORE PUSH1 0x11 PUSH1 0x4 MSTORE PUSH1 0x24 PUSH1 0x0 REVERT JUMPDEST PUSH32 0x4E487B7100000000000000000000000000000000000000000000000000000000 PUSH1 0x0 MSTORE PUSH1 0x22 PUSH1 0x4 MSTORE PUSH1 0x24 PUSH1 0x0 REVERT JUMPDEST PUSH32 0x4E487B7100000000000000000000000000000000000000000000000000000000 PUSH1 0x0 MSTORE PUSH1 0x32 PUSH1 0x4 MSTORE PUSH1 0x24 PUSH1 0x0 REVERT JUMPDEST PUSH32 0x4E487B7100000000000000000000000000000000000000000000000000000000 PUSH1 0x0 MSTORE PUSH1 0x41 PUSH1 0x4 MSTORE PUSH1 0x24 PUSH1 0x0 REVERT JUMPDEST PUSH1 0x0 DUP1 REVERT JUMPDEST PUSH1 0x0 DUP1 REVERT JUMPDEST PUSH1 0x0 DUP1 REVERT JUMPDEST PUSH1 0x0 DUP1 REVERT JUMPDEST PUSH1 0x0 PUSH1 0x1F NOT PUSH1 0x1F DUP4 ADD AND SWAP1 POP SWAP2 SWAP1 POP JUMP JUMPDEST PUSH32 0x5461736B206E6F7420666F756E64000000000000000000000000000000000000 PUSH1 0x0 DUP3 ADD MSTORE POP JUMP JUMPDEST PUSH2 0x9CC DUP2 PUSH2 0x7C1 JUMP JUMPDEST DUP2 EQ PUSH2 0x9D7 JUMPI PUSH1 0x0 DUP1 REVERT JUMPDEST POP JUMP INVALID LOG2 PUSH5 0x6970667358 0x22 SLT KECCAK256 DUP4 0xAD PUSH2 0x755D LOG0 0x2F DUP3 ADDRESS 0xB1 SGT 0x2C 0x1F DIFFICULTY DUP12 0xC2 0xE 0xD4 PUSH8 0x9B98DD8D130BDA6C 0xBE 0xB7 PUSH5 0x79D64736F PUSH13 0x63430008060033000000000000 "
				},
				"gasEstimates": {
					"creation": {
						"codeDepositCost": "515200",
						"executionCost": "549",
						"totalCost": "515749"
					},
					"external": {
						"createTask(string,string)": "infinite",
						"readTask(uint256)": "infinite",
						"updateTask(uint256,string,string)": "infinite"
					},
					"internal": {
						"findIndex(uint256)": "infinite"
					}
				},
				"methodIdentifiers": {
					"createTask(string,string)": "292a4585",
					"readTask(uint256)": "ab755faf",
					"updateTask(uint256,string,string)": "c72ef41f"
				}
			},
			"storageLayout": {
				"storage": [
					{
						"astId": 3,
						"contract": "contracts/TaskContract.sol:TaskContract",
						"label": "nextId",
						"offset": 0,
						"slot": "0",
						"type": "t_uint256"
					},
					{
						"astId": 14,
						"contract": "contracts/TaskContract.sol:TaskContract",
						"label": "tasks",
						"offset": 0,
						"slot": "1",
						"type": "t_array(t_struct(Task)10_storage)dyn_storage"
					}
				],
				"types": {
					"t_array(t_struct(Task)10_storage)dyn_storage": {
						"base": "t_struct(Task)10_storage",
						"encoding": "dynamic_array",
						"label": "struct TaskContract.Task[]",
						"numberOfBytes": "32"
					},
					"t_string_storage": {
						"encoding": "bytes",
						"label": "string",
						"numberOfBytes": "32"
					},
					"t_struct(Task)10_storage": {
						"encoding": "inplace",
						"label": "struct TaskContract.Task",
						"members": [
							{
								"astId": 5,
								"contract": "contracts/TaskContract.sol:TaskContract",
								"label": "id",
								"offset": 0,
								"slot": "0",
								"type": "t_uint256"
							},
							{
								"astId": 7,
								"contract": "contracts/TaskContract.sol:TaskContract",
								"label": "name",
								"offset": 0,
								"slot": "1",
								"type": "t_string_storage"
							},
							{
								"astId": 9,
								"contract": "contracts/TaskContract.sol:TaskContract",
								"label": "description",
								"offset": 0,
								"slot": "2",
								"type": "t_string_storage"
							}
						],
						"numberOfBytes": "96"
					},
					"t_uint256": {
						"encoding": "inplace",
						"label": "uint256",
						"numberOfBytes": "32"
					}
				}
			},
			"userdoc": {
				"kind": "user",
				"methods": {},
				"version": 1
			}
		}
	}
}